S014000047616D6520436F6E736F6C652E73726563A3
S11300000C942A030C9484030C9447030C947A03F1
S11300100C9447030C9447030C9447030C94470334
S11300200C9447030C9447030C9447030C94470324
S11300300C9447030C9447030C9447030C94470314
S11300400C9447030C9447030C9447030C949F03AC
S11300500C944703000000000000006418046418B6
S1130060003C4040207C000C3040300C003C4030D0
S1130070403C00003E1C080000041E1F1E0400102B
S11300803C7C3C100020403E010200221408142253
S1130090000038283800000010381000000000105C
S11300A00000000878080000000015150A00007F11
S11300B07F0909010010207F010100040400011FD1
S11300C00000191512000040605048440006090958
S11300D00600000F020101000000011F010000449E
S11300E0444A4A510014741C171400514A4A4444A7
S11300F000000004040400007C5454440008082A4E
S11301001C08007C007C447C0004027F0204001074
S1130110207F20100000000000000000006F00009D
S113012000000700070000147F147F140000070478
S11301301E00002313086462003649562050000054
S11301400007000000001C224100000041221C00A6
S11301500014083E08140008083E08080000503047
S11301600000000808080808000060600000002083
S113017010080402003E5149453E0000427F400001
S1130180004261514946002141454B310018141287
S11301907F10002745454539003C4A494930000154
S11301A07109050300364949493600064949291EA3
S11301B00000363600000000563600000008142205
S11301C04100001414141414000041221408000205
S11301D001510906003E415D494E007E0909097E30
S11301E0007F49494936003E41414122007F414157
S11301F0413E007F49494941007F09090901003E08
S11302004149497A007F0808087F0000417F410086
S1130210002040413F01007F08142241007F4040FC
S11302204040007F020C027F007F0408107F003EE4
S11302304141413E007F09090906003E4151215ECA
S1130240007F091929460046494949310001017FC7
S11302500101003F4040403F000F3040300F003F5D
S11302604030403F00631408146300070870080717
S1130270006151494543003C4A49291E00020408D3
S113028010200000417F000000040201020400402D
S113029040404040000000030400002054545478BF
S11302A0007F4844443800384444442000384444DF
S11302B0487F00385454541800087E090102000C89
S11302C05252523E007F080404780000447D4000EE
S11302D0002040443D0000007F1028440000417F7E
S11302E04000007C04180478007C0804047800387A
S11302F044444438007C1414140800081414187C72
S1130300007C0804040800485454542000043F446A
S11303104020003C4040207C001C2040201C003C2D
S11303204030403C004428102844000C5050503CBD
S1130330004464544C440000083641410000007FEE
S11303400000004141360800000402040804007F54
S11303506B6B6B7F00007C447C000000087C000019
S113036000006454480000004454280000001C109D
S1130370780000005C5424000000785474000000ED
S113038064140C0000007C547C0000005C543C00AD
S113039000782426257800782526247800702A29D8
S11303A02A7000782524257800205456557800209A
S11303B05556547800205655567800205554557893
S11303C0007C54565544007C55565444007C565584
S11303D05644007C5554554400385456551800383A
S11303E05556541800385655561800385554551853
S11303F00000447E45000000457E44000000467D28
S113040046000000457C45000000487A4100000099
S1130410497A400000004A794200000049784100CE
S11304200038444645380038454644380038464587
S113043046380038454445380030484A4930003091
S1130440494A483000304A494A3000304948493026
S1130450003C4042413C003C4142403C003C424163
S1130460423C003C4140413C003C4042217C003C39
S11304704142207C003842412278003C4140217CAA
S1130480004E5171110A005864642410007C0A1152
S1130490227D007812090A710000000402010001A3
S11304A00204000000000200020000304845402021
S11304B00000007B000000384444384400403E49BA
S11304C0493600080408700C006050485060002051
S11304D0525559300038545454000000007F4100F4
S11304E0004022141860007C20201C2000443C049E
S11304F07C4400403C12120C0041635549410038D1
S113050044443C040008043C44240008147F1408B8
S1130510004E7101714E004529112945000D5151BC
S1130520513D00000005020500400040004000006D
S1130530081C3E00001C1C1C000000007008070082
S113054000000808080000001D151700000007053A
S11305500700000011150A0000000000000000045C
S11305603C412000007C1615160800211608344270
S1130570007F091D01030038545414080000007C56
S11305804040007F0E1C387F0041225D221C001C6D
S11305903E1C0800007F7F7F7F7F00777B017B7795
S11305A0007F4375437F007F6F55437F0040404089
S11305B040400044425F424400405E455E4000408B
S11305C048555E400000040810200003070E1C3844
S11305D0000103070F1F007C787060400008081CAE
S11305E0221C00001C221C00000200080020000441
S11305F03E3F3E0400103E7E3E1000552A552A55CB
S113060000242A7F2A1200041E1F1E04000000007A
S113061000000000000000000000000000000000D6
S113062000000000000000000000000000000000C6
S113063000000000000000000000000000000000B6
S113064000000000000000000000000000000000A6
S11306500000000011241FBECFE5D4E0DEBFCDBFF3
S113066010E0A0E6B0E0ECEAFCE102C005900D92D7
S1130670A23CB107D9F722E0A2ECB0E001C01D9280
S1130680A33CB207E1F70E94E7080C94540E0C94C3
S11306900000A19AA99A089580E00C94F40580E0E2
S11306A00E94F4058635914010F4A9980895A99AFA
S11306B008958BB780648BBF85B7836085BFBB9A71
S11306C083B7886483BF83B7806383BF83B7836042
S11306D083BF89B7826089BF88EC8CBF85B5886485
S11306E085BD85B5876085BD89B7806889BF8FEF73
S11306F083BD08951F920F920FB60F9211240F908D
S11307000FBE0F901F9018951F920F920FB60F9265
S113071011248F9380990DC08CB78F3F11F41CBEA8
S113072008C08CB7813E11F48FEF02C08CB7875E8E
S11307308CBF8F910F900FBE0F901F9018951F9232
S11307400F920FB60F9211242F933F934F935F9301
S11307506F937F938F939F93AF93BF93EF93FF9385
S11307608091C2009091C300853F914030F00E9477
S11307704F031092C3001092C2008091C200909166
S1130780C30001969093C3008093C200FF91EF9140
S1130790BF91AF919F918F917F916F915F914F9195
S11307A03F912F910F900FBE0F901F9018951F939C
S11307B0CF93DF93C82FD62F40E00E94DD0711E0CE
S11307C01C0F40E06D2F812F0E94DD07DF5F40E0AA
S11307D06D2F8C2F0E94DD0740E06D2F812FDF915C
S11307E0CF911F910C94DD071F93CF93DF93C82FF4
S11307F011E0180F40E068E2812F0E94DD07D2E08B
S1130800DC0F40E068E28D2F0E94DD0740E068E2E3
S113081083E08C0F0E94DD0740E069E28C2F0E9488
S1130820DD0740E069E2812F0E94DD0740E069E2D4
S11308308D2FDF91CF911F910C94DD072F923F9262
S11308404F925F926F927F928F929F92AF92BF92DC
S1130850CF92DF92EF92FF920F931F93CF93DF9388
S1130860CDB7DEB728970FB6F894DEBF0FBECDBF65
S113087080E00E94C00781E00E94C00740E062E17E
S113088084E00E94DD0740E062E185E00E94DD072C
S113089040E063E182E00E94DD0740E063E187E03D
S11308A00E94DD0740E064E182E00E94DD0740E051
S11308B064E187E00E94DD0740E065E182E00E9498
S11308C0DD0740E065E187E00E94DD0740E066E186
S11308D083E00E94DD0740E066E186E00E94DD07D8
S11308E040E067E181E00E94DD0740E067E183E0EA
S11308F00E94DD0740E067E186E00E94DD0740E0FA
S113090067E188E00E94DD0740E068E181E00E9441
S1130910DD0740E068E182E00E94DD0740E068E135
S113092087E00E94DD0740E068E188E00E94DD077F
S113093040E06EE181E00E94DD0740E06EE184E08A
S11309400E94DD0740E06FE185E00E94DD0740E0A2
S113095060E281E00E94DD0740E060E285E00E9401
S1130960DD0740E061E282E00E94DD0740E061E2F1
S113097083E00E94DD0740E061E284E00E94DD073D
S113098040E061E285E00E94DD0764E184E10E94C9
S1130990D70366E186E10E94D70385E00E94F40351
S11309A08AE00E94F4038FE00E94F40340E062E3D3
S11309B08BE00E94DD0740E062E38CE00E94DD07EB
S11309C040E063E38AE00E94DD0740E063E38BE0FC
S11309D00E94DD0740E064E38BE00E94DD0793E2C0
S11309E0D12C12E0190FEE24E394E90E40E06D2DB2
S11309F0812F9B830E94DD0701E00D0D40E0602FF5
S1130A00812F0E94DD0782E0F82EFD0C40E06F2D5F
S1130A10812F0E94DD0740E06F2D8E2D0E94DD079F
S1130A2040E0602F9B81892F0E94DD0784E0D80E6F
S1130A309B81E4E3DE12DACF9C5F933589F6812C47
S1130A40912C540133243394F12C819B8FC00F2DAE
S1130A502CE045E650E060E080E00E945706EF2C71
S1130A6004E0A501940160E082E40E94A0068F2DB9
S1130A700E94DB08C12CD12CEC2CE8E0F0E0F887D4
S1130A80EF839FEF9C0D9A833601EFEF6E1A7E0A77
S1130A902F804F2D622D8E2D0E940E08782F2A81D3
S1130AA050E00F8118850F5F1F4F9FEF920D9983C0
S1130AB0422E552447FC5094641475046CF139811A
S1130AC0E32FFF27E7FDF0950E171F071CF14C14C9
S1130AD05D0429F48F819885E817F907C9F0263653
S1130AE0B8F4E1E0F0E0303410F0E0E0F0E0EF2BB7
S1130AF079F04F2D632F822F2C833D835E837B837C
S1130B000E940E082C813D815E817B81813061F1E0
S1130B103F5FD6CF2F5FCCCF713031F0432D622DA4
S1130B208E2D533039F409C05250432D622D8E2D31
S1130B30523018F00E94360802C00E94DD07188760
S1130B400F830034110509F0A3CF96E669167104EA
S1130B5011F0630191CFFFEF8F1A9F0AAF0ABF0A0A
S1130B608F2DF32C382E71CF5F5FD2CF28960FB61E
S1130B70F894DEBF0FBECDBFDF91CF911F910F91CF
S1130B80FF90EF90DF90CF90BF90AF909F908F90A9
S1130B907F906F905F904F903F902F9008950F93A8
S1130BA01F93CF93DF938C01EB0184E00E94F40543
S1130BB06AE070E00E946B0DF801608387E00E9498
S1130BC0F40534E0969587953A95E1F78883DF91AB
S1130BD0CF911F910F9108958AB38F708ABB3E9A6B
S1130BE086B1866886B90895806487B9369A36993D
S1130BF0FECF84B125B190E0922B089581B3847027
S1130C0081BB82B38B6F82BB08951F93CF93DF9315
S1130C10C82FD62F40E00E94360811E01C0F40E098
S1130C206D2F812F0E943608DF5F40E06D2F8C2FDF
S1130C300E94360840E06D2F812FDF91CF911F91E4
S1130C400C9436081F93CF93DF93C82FD62F40E020
S1130C500E94DD0711E01C0F40E06D2F812F0E94E0
S1130C60DD07DF5F40E06D2F8C2F0E94DD0740E041
S1130C706D2F812FDF91CF911F910C94DD07CF93BE
S1130C80DF93C82FD1E0D80F6D2F8AE00E9422068F
S1130C906D2F8CE00E942206CD5F6C2F8AE00E94AB
S1130CA022066C2F8CE0DF91CF910C9422066F9278
S1130CB07F929F92AF92BF92CF92DF92EF92FF9278
S1130CC00F931F93CF93DF931F92CDB7DEB7B62E4A
S1130CD07A01A22E982F10E086E0982E1A1509F1B9
S1130CE0612C712C6701C10ED11CF6018081F301C6
S1130CF0989EE00DF11D1124EC5AFF4F4491202FD2
S1130D006B2D862D890F99830E946808FFEF6F1A57
S1130D107F0A998186E06816710439F71F5F9A5F2C
S1130D20DDCF0F90DF91CF911F910F91FF90EF9046
S1130D30DF90CF90BF90AF909F907F906F90089579
S1130D402F923F924F925F926F927F928F929F92D7
S1130D50AF92BF92CF92DF92EF92FF920F931F93C5
S1130D60CF93DF9300D0CDB7DEB7662E822E742EDC
S1130D70A02E5E2CB02EBB0CB00EBB0CB80E912C6A
S1130D809AE0C92ED12CE12CF12CAA2071F1682D06
S1130D90732F872D952FA70196010E94930D605DF7
S1130DA0822E742E492C4B0C86E0689F80011124FE
S1130DB0212C312C0C5A1F4FF801E20DF31D4491E4
S1130DC0252D662D822D840D39835A830E9468084F
S1130DD0EFEF2E1A3E0A39815A81F6E02F163104BC
S1130DE059F7AA948AEF980ED0CF0F900F90DF9105
S1130DF0CF911F910F91FF90EF90DF90CF90BF9014
S1130E00AF909F908F907F906F905F904F903F90A6
S1130E102F9008950F931F93CF93DF9380E00E9448
S1130E20C00700E026E045E850E061E084E10E946C
S1130E30570625E04FE750E062E084E10E94570640
S1130E402CE042E750E063E084E10E94570688E02A
S1130E500E943F0680E00E94DB0810E0D0E0C0E082
S1130E60DF5FC33024F4C7FF03C0C2E001C0C0E0A9
S1130E701C17F1F0110F110F110F185F01E0010F92
S1130E80602F8AE00E940506602F8CE00E94050610
S1130E901D5F612F8AE00E940506612F8CE00E948D
S1130EA005068C2F880F880F880F885F0E943F06E5
S1130EB080E00E94DB08D53070F0879903C08FEF83
S1130EC08C0F01C08C2F859B8F5F839B06C0D0E065
S1130ED01C2FC82FC5CF8C2FFBCFDF91CF911F9133
S1130EE00F91089587B3876087BBC19AC29AC09A4D
S1130EF00895C29886E00E94A50CC29AC29882E026
S1130F000C94A50CC29883E00C94A50CC29A089585
S1130F101F93CF93DF9300D0CDB7DEB7182F6A832A
S1130F2099830E94790789810E94A50C812F0E94D0
S1130F30A50C6A81862F0E94A50C0F900F90DF915B
S1130F40CF911F910C9486071F93CF93DF931F9229
S1130F50CDB7DEB7182F99830E94820789810E943A
S1130F60A50C812F0E94A50C8FEF0E94A50C8983EC
S1130F700E94860789810F90DF91CF911F91089578
S1130F800F931F93CF93DF93811105C00FE213E0FA
S1130F90C0E0D0E004C00FE516E0C0E3D3E00C17D6
S1130FA01D0730F060E0CE010E9488072196F7CF3C
S1130FB0DF91CF911F910F9108950F931F93CF93BA
S1130FC0DF931F92CDB7DEB7962F9695969596959B
S1130FD0082F10E086E6989F000D111D112420E3D0
S1130FE033E0429FC001439F900D1124080F191F45
S1130FF0C80169830E94A4076981962F977061E0F4
S113100070E001C0660F9A95EAF7682BC8010F904B
S1131010DF91CF911F910F910C948807CF93DF93A9
S11310201F92CDB7DEB7262F26952695269590E0FC
S113103036E6239F800D911D1124E0E3F3E04E9FDB
S113104090014F9F300D1124820F931F69830E94DA
S1131050A40790E06981677002C0959587956A95A9
S1131060E2F781700F90DF91CF9108950F931F9352
S1131070CF93DF931F92CDB7DEB7962F96959695B3
S11310809695082F10E086E6989F000D111D1124F7
S113109020E333E0429FC001439F900D1124080FC9
S11310A0191FC80169830E94A4076981677021E040
S11310B030E001C0220F6A95EAF7622F6095682339
S11310C0C8010F90DF91CF911F910F910C94880765
S11310D090E036E6639F800D911D1124A0E3B3E0F8
S11310E02A9FF0012B9FF00D1124642F8E0F9F1F58
S11310F00C948807CF92DF92EF92FF920F931F9385
S1131100CF93DF93CDB7DEB7C656D1090FB6F894A7
S1131110DEBF0FBECDBF20E333E0829F6001839F1B
S1131120D00C11249E012F5F3F4F790100E010E0A5
S11311308091C400F80126E6829FE00DF11D112480
S1131140CF018C0D9D1D0E94A407F70181937F019F
S11311500F5F1F4F0636110559F78091C4000E9496
S1131160030D8E010F5F1F4FF12C8F2D0E94060D72
S1131170F80181918F010E941C0DF394F6E6FF1291
S1131180F4CF8091C4008F5F883018F48093C4003A
S113119002C01092C400CA59DF4F0FB6F894DEBFE4
S11311A00FBECDBFDF91CF911F910F91FF90EF90B4
S11311B0DF90CF900895CF93DF93D82FC8E08D2F81
S11311C00E947A08C150D9F7DF91CF9108950E9407
S11311D0EC050E94990C0E94CB0C0E942C0D0E94DD
S11311E072070E94FE050E9449030E9459037894E5
S11311F00E940A07813049F028F0823049F40E94A5
S11312001E04F6CF0E941109F3CF0E94C80AF0CF42
S113121000E02DE04CE850E063E08AE00E945706CD
S1131220E7CFCF92DF92EF92FF920F931F93CF936A
S1131230DF9300D0CDB7DEB783E38A8380E289836E
S113124000E010E083E3F82E90E2E92E25E6D22EAA
S11312503FE3C32E81990EC081E00E94C0070F9026
S11312600F90DF91CF911F910F91FF90EF90DF903E
S1131270CF900895839905C081E00E94C007FA8247
S1131280E982879928C0839926C0002391F001E060
S113129021E04AE950E060E080E00E9457062FEF29
S11312A081EE94E0215080409040E1F700C00000BE
S11312B01DC001E021E04CE950E060E080E00E94C4
S11312C057062FEF81EE94E0215080409040E1F7E3
S11312D000C0000002C0002349F0BE016F5F7F4FD1
S11312E0CE0102960E94CF0501E019C01530A8F086
S11312F0879903C0898181508983859903C0898135
S11313008F5F8983869903C08A8181508A838499F7
S113131003C08A818F5F8A8310E01F5F00E08A81A7
S1131320853608F0DA828A81823010F481E08A837B
S113133089818F3308F0C9828981823010F481E079
S1131340898341E069818A810E94DD078FE79EE3FA
S11313500197F1F700C0000081E00E947A087ACF7B
S113136084E08093CA001092C7001092C60081E006
S1131370809364001092C50083E38093CB0080E2E5
S11313808093CC00E0EDF0E08DEFDF0111979091B8
S1131390CB00980F9C939091CC009083835034960B
S11313A0843F99F708950E94030E64E471E00E945B
S11313B07F0D6D5F6093C8000E94030E69E472E0C4
S11313C00E947F0D6C5F6093C9008091C8008330D8
S11313D018F486E08093C8006A3018F48DE0809396
S11313E0C9008091C800823618F08FE58093C80048
S11313F08091C9008C3318F089E38093C900089563
S11314000F931F93CF93DF9309EC10E0C8ECD0E067
S1131410888140E0F80160818F5F0E94DD07F80158
S113142060816F5F888140E08F5F0E94DD07F80173
S113143060816E5F888140E08F5F0E94DD07F80164
S113144060816F5F40E088810E94DD07F801608160
S11314506F5F888140E08E5FDF91CF911F910F9184
S11314600C94DD07EF920F93CF93DF93EC0100E030
S113147027E04AEB50E060E08CE00E9457069E01B2
S113148040E050E0E12C06E060E080E30E94A0062A
S1131490DF91CF910F91EF900895EF92FF920F9308
S11314A01F93CF93DF9300D0CDB7DEB7982F262FAD
S11314B0E090CC00F090CB0001E00E0D11E01F0D88
S11314C040E0602F812F2A8399830E94DD07998150
S11314D02A819923B1F09F3F19F0913019F028C067
S11314E0F394F39440E06E2D8F2D0E94DD0740E0CD
S11314F0602F8F2D0E94DD0762E06E0D40E08F2D7E
S113150015C02F3F19F0213019F012C0E394E39471
S113151040E06E2D8F2D0E94DD0740E06E2D812F5F
S11315200E94DD0740E06E2D82E08F0D0E94DD07F2
S113153011E08091CA00181710F584E0189FF0019B
S11315401124E553FF4FE180F08090E020E0092F63
S11315500F0D913011F4213051F040E0622F6E0DE7
S1131560802F2A8399830E94DD0799812A812F5F26
S1131570233079F79F5F933049F71F5FDACF0F90DD
S11315800F90DF91CF911F910F91FF90EF900895ED
S1131590BF92CF92DF92EF92FF920F931F93CF935C
S11315A0DF9380E00E94C0070E94B0090E94D30923
S11315B06091C500809164000E944D0A0E94000A57
S11315C08091C6009091C7000E94320A80E00E9478
S11315D0DB080E944C030E94080E2FEF49E688E1C5
S11315E0215040408040E1F700C000008DE7E82E24
S11315F011E0FF24FA948091C800282F30E0409134
S1131600CB0050E0B9016E5F7F4F641775070CF48F
S113161053C04D5F5F4F421753070CF44DC06091A8
S1131620C900262F30E04091CC0050E0F9013296F9
S1131630E417F5070CF440C04D5F5F4F42175307A2
S1131640DCF19091CA009F5F9E3708F41AC1E092C2
S1131650CA002091C6003091C7002E523B4F3093F0
S1131660C7002093C60040E08F5F0E943608609157
S1131670C9006F5F8091C80040E08F5F0E94360808
S11316806091C9006E5F8091C80040E08F5F0E9446
S113169036086091C9006F5F40E08091C8000E94E5
S11316A036086091C9006F5F8091C80040E08E5F8A
S11316B00E9436080E94D309D090C50000916400AE
S11316C0C091CB00C093CD00D091CC00D093CE007C
S11316D0BB24B394BD0ECC24C394CC0E40E06B2D3C
S11316E08C2D0E9436080023A9F00F3F19F0013019
S11316F011F028C0CE5F40E06D2F8C2F0E94360879
S113170040E06B2D8C2F0E94360862E06D0F40E0A4
S11317108C2F16C09FEFD91621F0A1E0DA1611F034
S113172011C0DE5F40E06D2F8C2F0E94360840E030
S11317306D2F8C2D0E94360840E06D2F82E08C0FB7
S11317400E943608802F880F800F9091CB00890F5C
S11317508093CB008D2D880F8D0D9091CC00890F37
S11317608093CC00E091CA00B4E0EB9FF001112417
S1131770E953FF4FC180D080C0E0D0E00C2F0D0DA5
S1131780C13011F4D13031F040E06D2F6C0D802F59
S11317900E943608DF5FD33099F7CF5FC33069F713
S11317A03091CA00CFECD0E060ED70E0E2EDF0E003
S11317B021E02317C8F44881CF010197DC014C9341
S11317C0DB018C918083CF010597DC018C918883A8
S11317D0CF010497DC018C91DB018C932F5F24965D
S11317E06C5F7F4F3496E5CF6091C50080916400B3
S11317F00E944D0A0E94000A8091C6009091C70081
S11318000E94320A3091CA009091CB002091CC0002
S113181085E0381770F0B4E08B9FF0011124E55394
S1131820FF4F4081941303C04181241741F08F5F1F
S1131830F0CF9150923618F428502533B0F10E941D
S1131840480D00E02BE04EEA50E062E082E10E94A5
S113185057062FE04EE950E064E086E00E94570608
S113186080E00E94DB08839B0FC08199FCCFDF914D
S1131870CF911F910F91FF90EF90DF90CF90BF9089
S113188008959093CA00E5CE80E00E94C00780E0EE
S11318900E94DB080E94B0099FEFA9E6B8E19150CD
S11318A0A040B040E1F700C0000080E00E94DB08E7
S11318B02FEF46E781E0215040408040E1F700C02F
S11318C00000869909C08091C500882379F01092A0
S11318D0C500F09264000AC0849908C08091C500D4
S11318E0882321F01092C50010936400859909C0E3
S11318F080916400882379F0109264001093C500ED
S11319000AC0879908C080916400882321F010924E
S11319106400F092C50081996ECE80E0DF91CF9192
S11319201F910F91FF90EF90DF90CF90BF900C9498
S1131930C00787B3806A87BBBC9A8DB180658DB9B7
S1131940709A8DB18C608DB908958FB9779BFECF55
S11319508FB10895AF988FE19EE40197F1F700C02D
S11319600000AF9A0895A898C4980895A89AC498B6
S11319700895C49A0895CF93DF931F92CDB7DEB72D
S113198089830E94B30C89810E94A50C0F90DF917A
S1131990CF910C94B90CA09ABC9AA79AA89AC49A0D
S11319A0AF9A0E94AA0C80E40E94BB0C80EA0E94B9
S11319B0BB0C88EC0E94BB0C84EA0E94BB0C86EA38
S11319C00E94BB0C2FEF8DEE92E02150804090409E
S11319D0E1F700C0000082EA0E94BB0C8FE20E9483
S11319E0BB0C87E20E94BB0C81E80E94BB0C80E127
S11319F00E94BB0C8AEF0E94BB0C80E90E94BB0CC6
S1131A008FEA0C94BB0C806B0C94BB0CCF93C82F47
S1131A10282F30E0225E3F4F84E0359527958A9544
S1131A20E1F7822F8F7080610E94BB0C8EE18C0FD6
S1131A308F70CF910C94BB0CCF93DF931F92CDB7D3
S1131A40DEB789830E94B60C89810E94A50C0F9091
S1131A50DF91CF910C94B90CCF93DF93C0E08C2F1E
S1131A600E94030DD0E08D2F0E94060D80E00E949D
S1131A701C0DDF5FD636B9F7CF5FC83081F7DF9131
S1131A80CF91089587EA0C94BB0C86EA0C94BB0CA6
S1131A900E94420D2FEF80E792E021508040904059
S1131AA0E1F700C000000E94450D2FEF80E792E0AF
S1131AB0215080409040E1F700C000000E94420D98
S1131AC02FEF80E792E0215080409040E1F700C082
S1131AD000000C94450DAA1BBB1B51E107C0AA1FB3
S1131AE0BB1FA617B70710F0A61BB70B881F991FBB
S1131AF05A95A9F780959095BC01CD01089597FB5F
S1131B00072E16F4009407D077FD09D00E946B0DC0
S1131B1007FC05D03EF4909581959F4F08957095EC
S1131B2061957F4F0895A1E21A2EAA1BBB1BFD01EC
S1131B300DC0AA1FBB1FEE1FFF1FA217B307E407A8
S1131B40F50720F0A21BB30BE40BF50B661F771F00
S1131B50881F991F1A9469F76095709580959095E0
S1131B609B01AC01BD01CF0108958F929F92AF926A
S1131B70BF92CF92DF92EF92FF92CF93DF93EC016B
S1131B80688179818A819B8161157105810591053F
S1131B9021F464E279ED8BE597E02DE133EF41E048
S1131BA050E00E94130E49015A019B01AC01A7EABF
S1131BB0B1E40E94320E6B017C01ACEEB4EFA501DE
S1131BC094010E94400EC60ED71EE81EF91EF7FEB1
S1131BD006C081E0C81AD108E10880E8F80AC88282
S1131BE0D982EA82FB82C6019F77DF91CF91FF9071
S1131BF0EF90DF90CF90BF90AF909F908F9008951B
S1131C000E94B50D089580E690E00E94B50D0895F8
S1131C10A0E0B0E08093600090936100A093620024
S1131C20B09363000895052E97FB1EF400940E9460
S1131C302A0E57FD07D00E94930D07FC03D04EF4E3
S1131C400C942A0E50954095309521953F4F4F4F57
S1131C505F4F089590958095709561957F4F8F4F54
S1131C609F4F08950E94450EA59F900DB49F900D1F
S1131C70A49F800D911D11240895B7FF0C94320E7A
S1131C800E94320E821B930B0895A29FB001B39F52
S1131C90C001A39F700D811D1124911DB29F700D71
S10F1CA0811D1124911D0895F894FFCFBC
S1131CAC010000000147656E65726174696F6E3ADC
S1131CBC200047616D65206F66204C696665005392
S1131CCC6E616B6500536B657463680053656C657A
S1131CDC6374204572726F722100420050004131CE
S1131CEC202D2059202F204132202D204E00506CC5
S1131CFC617920616761696E3F0053636F72653A65
S1051D0C2000B1
S9030000FC
